S015000041746D656C2D476C756547756E2E7372656338
S113000009C021C020C071C01EC01DC01CC01BC0BF
S11300101AC019C011241FBECFE9CDBF10E0A0E65D
S1130020B0E0E4E9F3E002C005900D92AC37B1070B
S1130030D9F720E0ACE7B0E001C01D92A138B207C7
S1130040E1F7AFD0A5C1DCCF10927C0080937F0094
S11300501092800081E080937E0080917E00811167
S1130060FCCF0895009769F020E030E0EFE5F9E077
S11300703197F1F700C000002F5F3F4F82179307BD
S1130080A9F70895B89AC09A82E083BF86E882BF30
S113009089B7826089BF7894089510927D00D4DF77
S11300A0089510927D00D0DF0895CF93DF93EC0183
S11300B010927D008881882329F02196C5DF8991DB
S11300C08111FCCFDF91CF910895CF93DF93EC01A1
S11300D010927D008881882329F02196B5DF8991CB
S11300E08111FCCFDF91CF9108951F920F920FB62B
S11300F00F9211242F938F939F9386E882BF809150
S113010080008F5F809380008091800080FF2EC0EC
S113011080917E00882341F180917C00811102C08E
S1130120C09816C080917C00893088F480917F004B
S113013020917C0090E0215002C0959587952A95E6
S1130140E2F780FF02C0C09A03C0C09801C0C09A01
S113015080917C008A3011F410927E0080917C00A2
S11301608F5F80937C0002C080917D009F918F916E
S11301702F910F900FBE0F901F90189586E886B9A7
S1130180A49A089587B980E28A95F1F7369A349B48
S1130190FECF349A84B195B1089587DF8DE081DF75
S11301A00895BB9AEBDF6EDFC12CD12C412C512C6E
S11301B00F2EFAE0EF2EF12CF02D0F2EF0E18F2E02
S11301C0F7E29F2EF02D0F2EF4E66F2E712CF02DFA
S11301D0B09BB0C0C70146DFB09906C028E2421602
S11301E023E252065CF003C0412C512C07C0C39893
S11301F080E690E0D2DFC12CD12CEACF10E0C0E041
S1130200D0E080EF90E00197F1F782E0BBDFC80F08
S1130210D91F1F5F1A30A9F7CE01B70192D05B0135
S11302206B3D23E072073CF0C39888E690E0B5DFAD
S1130230C12CD12C13C0613D734084F488E5C816E9
S113024082E0D80624F08CE690E0A7DF07C09FEF99
S1130250C91AD90AC39A84E790E09FDF2FEF421AA4
S1130260520A87E790E031DFCE01B4016AD0EB0196
S1130270862F805D12DFCE01002496958795079422
S1130280969587950794982F802D8C1B9D0B0024A1
S1130290969587950794969587950794982F802D22
S11302A08C0F9D1F880F991FC80FD91FCC0FDD1FFE
S11302B0CC0FDD1FCC0FDD1FCA0DDB1DCE01B3013A
S11302C040D05B0180E3860FE8DEC501880F991FEB
S11302D0880F991FA80EB91EC501880F991F880F92
S11302E0991FA80EB91EAA0CBB1CAA0CBB1CCA19C8
S11302F0DB09CE01B70125D05B0180E3860FCDDE9B
S1130300C501880F991F880F991FA80EB91EAA0C42
S1130310BB1CCE018A199B09805DBFDE8DE0BDDE6A
S11303208FEF97E522E0815090402040E1F700C034
S113033000004ECF88E2481683E258060CF45ECFE4
S113034056CF97FB072E16F4009406D077FD08D0FD
S11303500BD007FC05D03EF4909581959F4F0895EE
S1130360709561957F4F0895AA1BBB1B51E107C08F
S1130370AA1FBB1FA617B70710F0A61BB70B881F31
S1130380991F5A95A9F780959095BC01CD010895C0
S1070390F894FFCF0B
S11303944F66664D6F7665004F6666004D6178540E
S10F03A4696D65004F6E006164633A00EF
S9030000FC
