S015000041746D656C2D476C756547756E2E7372656338
S113000009C021C020C071C01EC01DC01CC01BC0BF
S11300101AC019C011241FBECFE9CDBF10E0A0E65D
S1130020B0E0EEEAF3E002C005900D92A638B10705
S1130030D9F720E0A6E8B0E001C01D92AB38B207C2
S1130040E1F7AFD0B2C1DCCF109286008093890073
S113005010928A0081E08093880080918800811149
S1130060FCCF0895009769F020E030E0EFE5F9E077
S11300703197F1F700C000002F5F3F4F82179307BD
S1130080A9F70895B99AC19A82E083BF86E882BF2E
S113009089B7826089BF7894089510928700D4DF6D
S11300A0089510928700D0DF0895CF93DF93EC0179
S11300B0109287008881882329F02196C5DF8991D1
S11300C08111FCCFDF91CF910895CF93DF93EC01A1
S11300D0109287008881882329F02196B5DF8991C1
S11300E08111FCCFDF91CF9108951F920F920FB62B
S11300F00F9211242F938F939F9386E882BF809150
S11301008A008F5F80938A0080918A0080FF2EC0CE
S113011080918800882341F180918600811102C07A
S1130120C19816C080918600893088F48091890036
S11301302091860090E0215002C0959587952A95DC
S1130140E2F780FF02C0C19A03C0C19801C0C19AFE
S1130150809186008A3011F4109288008091860084
S11301608F5F8093860002C0809187009F918F915A
S11301702F910F900FBE0F901F90189586E886B9A7
S1130180A39A089587B980E28A95F1F7369A349B49
S1130190FECF349A84B195B1089587DF8DE081DF75
S11301A00895BC9AEBDF6EDFC12CD12C412C512C6D
S11301B00F2EFAE0EF2EF12CF02D0F2EF0E18F2E02
S11301C0F7E29F2EF02D0F2EF4E66F2E712CF02DFA
S11301D0B09BBDC0C70146DFB09906C028E24216F5
S11301E023E252065CF003C0412C512C07C0C49892
S11301F080E690E0D2DFC12CD12CEACF10E0C0E041
S1130200D0E080EF90E00197F1F783E0BBDFC80F07
S1130210D91F1F5F1A30A9F7CE01B7019FD05B0128
S11302209B01245131092F3D334038F0C49888E6AE
S113023090E0B3DFC12CD12CCBCF6E3523E0720715
S11302403CF0C49881E790E0A8DFC12CD12C13C006
S11302506835734084F488E5C81682E0D80624F033
S113026085E790E09ADF07C09FEFC91AD90AC49ABC
S11302708DE790E092DF2FEF421A520A80E890E077
S113028024DFCE01B4016AD0EB01862F805D05DF47
S1130290CE010024969587950794969587950794A3
S11302A0982F802D8C1B9D0B002496958795079481
S11302B0969587950794982F802D8C0F9D1F880FF6
S11302C0991FC80FD91FCC0FDD1FCC0FDD1FCC0F1A
S11302D0DD1FCA0DDB1DCE01B30140D05B0180E3FD
S11302E0860FDBDEC501880F991F880F991FA80EA2
S11302F0B91EC501880F991F880F991FA80EB91E32
S1130300AA0CBB1CAA0CBB1CCA19DB09CE01B70181
S113031025D05B0180E3860FC0DEC501880F991FDD
S1130320880F991FA80EB91EAA0CBB1CCE018A19EE
S11303309B09805DB2DE8DE0B0DE4FEF87E592E091
S1130340415080409040E1F700C0000041CF28E2D6
S1130350421623E252060CF451CF49CF97FB072EE5
S113036016F4009406D077FD08D00BD007FC05D016
S11303703EF4909581959F4F0895709561957F4FB8
S11303800895AA1BBB1B51E107C0AA1FBB1FA617D8
S1130390B70710F0A61BB70B881F991F5A95A9F72A
S11103A080959095BC01CD010895F894FFCF8F
S11303AE4F66664D6F766500542062726F6B656E94
S11303BE004F6666004D617854696D65004F6E009E
S10903CE6164633A0000C3
S9030000FC
