:1000000009C021C020C069C01EC01DC01CC01BC0CB
:100010001AC019C011241FBECFE9CDBF10E0A0E661
:10002000B0E0EAE4F3E002C005900D92AA38B1070F
:10003000D9F720E0AAE8B0E001C01D92AF38B207BE
:10004000E1F7BED080C1DCCFFF920F931F93CF9317
:10005000DF93182F092FE5E0F0E020E137E240E0E0
:10006000CAE0D0E0FF24F394812F902FB90157D13B
:10007000CB01BE0154D1411102C0882381F0805DC3
:1000800010928B0010928A0080938D0010928E0047
:10009000F0928C0080918C008111FCCF41E0C9016D
:1000A000BE013DD19B013197F9F6411110C0105DA1
:1000B00010928B0010928A0010938D0010928E0087
:1000C00081E080938C0080918C008111FCCFDF91C6
:1000D000CF911F910F91FF9008951F920F920FB62D
:1000E0000F9211242F938F939F9386E882BF809164
:1000F0008E008F5F80938E0080918E0080FF06C0FF
:1001000080918C0081110AC080918B009F918F910A
:100110002F910F900FBE0F901F90189580918A001D
:10012000882389F080918A00893008F580918D00BC
:1001300020918A0090E0215002C0959587952A95DC
:10014000E2F780FD14C0C19880918A008A3011F4D2
:1001500010928C0080918A008F5F80938A009F911B
:100160008F912F910F900FBE0F901F901895C19AED
:10017000EBCF10928B00FC0181E09191992379F0F3
:1001800010928A0090938D0010928E0080938C00C4
:1001900090918C009111FCCF91919111F1CF10921F
:1001A0008B0010928A008DE080938D0010928E005B
:1001B00081E080938C0080918C008111FCCF0895A8
:1001C000BC9A86E886B9A39AB99AC19A92E093BF7D
:1001D00082BF89B7826089BF789400E010E0CFEFDA
:1001E000C12CD12C88E1682E9CE0792E23E0B22E20
:1001F0003AE0E32EF12CAA24A3944DE0542EA895C6
:100200000FB6F894A89561BC0FBE71BC8C2FDEE5CB
:10021000C6B3C170C81729F080E690E0AADFC12CF0
:10022000D12C8FE599E00197F1F700C00000D15083
:100230008C2F71F798E2C91693E2D90608F053C0E3
:10024000EFEFCE1ADE0A9AE020E030E0E0EFF0E0D7
:100250003197F1F7B7B8F0E2FA95F1F7369A349B97
:10026000FECF349A44B155B1240F351F915071F728
:10027000C901B70154D04B01CB0144978F3D934046
:10028000C8F56B357340E8F5083592E0190708F4B6
:100290003FC08AE790E06DDF10928B00E5E8F0E068
:1002A0008191882379F010928A0080938D001092BA
:1002B0008E00A0928C0080918C008111FCCF8191E6
:1002C0008111F1CFC401C0DE10928B0010928A0020
:1002D00050928D0010928E00A0928C0080918C0024
:1002E0008111FCCF8CCFC49885E690E042DF00E01E
:1002F00010E085CFC4988DE690E03BDF00E010E091
:100300007ECFC49886E790E034DF00E010E0C4CFF1
:100310000F5F1F4FC49A82E890E02BDFBDCFAA1B6E
:10032000BB1B51E107C0AA1FBB1FA617B70710F0E0
:10033000A61BB70B881F991F5A95A9F78095909512
:0A034000BC01CD010895F894FFCF31
:10034A006D6F7665004F66664D6F76650054204284
:10035A00726F6B656E004F6666004D617854696D09
:0A036A0065004F6E006164633A0005
:00000001FF
