:1000000009C019C018C017C016C015C014C013C04D
:1000100012C011C011241FBECFE9CDBF10E0A0E671
:10002000B0E0E4E6F1E002C005900D92A036B10721
:10003000D9F720D095C0E4CF20E030E02817390769
:1000400049F0EFE5F9E03197F1F700C000002F5FCC
:100050003F4FF4CF089586E886B9A39A089587B9EB
:1000600080E28A95F1F7369A349BFECF349A84B1B8
:1000700095B10895BC9AEFDFC0E0D0E000E010E059
:100080008AE0A82EB12CB09905C0083223E21207ED
:10009000FCF407C08AE090E0CFDFB09BF6CF00E031
:1000A00010E0D12CE12CF12C80EF90E00197F1F7DA
:1000B00083E0D5DFE80EF91ED3949AE0D912F4CF8D
:1000C000C701B50126D0CB0144978F3D934020F066
:1000D000C498C0E0D0E0D7CF6E3583E0780724F035
:1000E000C498C0E0D0E009C06835734034F4C83526
:1000F00022E0D20714F42196C49A0F5F1F4F8FE7B6
:100100009BE922E0815090402040E1F700C00000D0
:10011000BACF97FB072E16F4009406D077FD08D0CF
:100120000BD007FC05D03EF4909581959F4F089524
:10013000709561957F4F0895AA1BBB1B51E107C0C5
:10014000AA1FBB1FA617B70710F0A61BB70B881F67
:10015000991F5A95A9F780959095BC01CD010895F6
:04016000F894FFCF41
:00000001FF
