:1000000009C019C018C017C016C015C014C013C04D
:1000100012C011C011241FBECFE9CDBF10E0A0E671
:10002000B0E0E6E2F1E002C005900D92A036B10723
:10003000D9F711D076C0E4CF86E886B9A39A08959F
:1000400087B980E28A95F1F7369A349BFECF349ACD
:1000500084B195B10895BC9AEFDFC0E0D0E01FEF06
:10006000E12CF12C88E1982E9CE0892E2AE0A22E2A
:10007000B12CA8950FB6F894A89591BC0FBE81BC81
:10008000912F8EE516B31170191711F0E12CF12C98
:10009000EFE5F9E03197F1F700C000008150912FB2
:1000A00089F7F8E2EF16F3E2FF06D8F42FEFE21A31
:1000B000F20A0AE0C12CD12C80EF90E00197F1F711
:1000C00083E0BEDFC80ED91E0150B1F7C601B501ED
:1000D00014D0CB0144978F3D934018F46B35734097
:1000E00020F0C498C0E0D0E0C4CFC83522E0D207E9
:1000F00008F0BFCF2196C49ABCCFAA1BBB1B51E10D
:1001000007C0AA1FBB1FA617B70710F0A61BB70B87
:10011000881F991F5A95A9F780959095BC01CD012C
:060120000895F894FFCFE2
:00000001FF
