:1000000009C019C018C017C016C015C014C013C04D
:1000100012C011C011241FBECFE9CDBF10E0A0E671
:10002000B0E0ECE5F1E002C005900D92A036B1071A
:10003000D9F720D091C0E4CF20E030E0281739076D
:1000400049F0EFE5F9E03197F1F700C000002F5FCC
:100050003F4FF4CF089586E886B9A49A089587B9EA
:1000600080E28A95F1F7369A349BFECF349A84B1B8
:1000700095B10895BB9AEFDFC0E0D0E000E010E05A
:100080008AE0A82EB12CB09905C0083223E21207ED
:1000900064F407C08AE090E0CFDFB09BF6CF00E0C9
:1000A00010E0D12CE12CF12C04C0C398C0E0D0E0CA
:1000B000EACF80EF90E00197F1F782E0D0DFE80E21
:1000C000F91ED3949AE0D912F4CFC701B5011DD01F
:1000D0006B3D23E0720724F0C398C0E0D0E009C074
:1000E000613D734034F4C83592E0D90714F4219689
:1000F000C39A0F5F1F4F2FE78BE992E0215080409A
:100100009040E1F700C00000BECF97FB072E16F429
:10011000009406D077FD08D00BD007FC05D03EF444
:10012000909581959F4F0895709561957F4F0895A3
:10013000AA1BBB1B51E107C0AA1FBB1FA617B7070D
:1001400010F0A61BB70B881F991F5A95A9F7809529
:0C0150009095BC01CD010895F894FFCFFC
:00000001FF
