:1000000009C021C020C04DC01EC01DC01CC01BC0E7
:100010001AC019C011241FBECFE9CDBF10E0A0E661
:10002000B0E0E0EBF2E002C005900D92A636B10719
:10003000D9F720E0A6E6B0E001C01D92AB36B207CA
:10004000E1F787D033C1DCCF10926600809369005E
:1000500010926A0081E080936800809168008111AD
:10006000FCCF0895B89AC09A82E083BF86E882BF29
:1000700089B7826089BF7894089510926700E4DFA1
:100080000895CF93DF93EC01109267008881882355
:1000900029F02196D9DF89918111FCCFDF91CF9191
:1000A00008951F920F920FB60F9211242F938F93E2
:1000B0009F9386E882BF80916A008F5F80936A0079
:1000C00080916A0080FF2EC080916800882341F1F2
:1000D00080916600811102C0C09816C080916600B0
:1000E000893088F4809169002091660090E0215069
:1000F00002C0959587952A95E2F780FF02C0C09AC5
:1001000003C0C09801C0C09A809166008A3011F483
:1001100010926800809166008F5F8093660002C035
:10012000809167009F918F912F910F900FBE0F903C
:100130001F90189586E886B9A29A089587B980E23B
:100140008A95F1F7369A349BFECF349A84B195B1F3
:100150000895BB9AEFDF86DF0F2EFAE0EF2EF12C29
:10016000F02D0F2EF0E1AF2EF7E2BF2EF02D0F2E67
:10017000F4E6CF2ED12CF02DC398C0E000E010E0C3
:1001800080EF90E00197F1F781E0D8DF080F191FA9
:10019000CF5FCA30A9F7C801B70161D0EB0180E693
:1001A00090E06FDFC801B5015AD08B0180E3860F64
:1001B00064DFC801002496958795079496958795E6
:1001C0000794982F802D801B910B0024969587957E
:1001D0000794969587950794982F802D800F911FEF
:1001E000880F991F080F191F000F111F000F111FF3
:1001F000000F111FC00FD11FCE01B60130D08B01EF
:1002000080E3860F3ADFC801880F991F880F991F76
:10021000080F191FC801880F991F880F991F080F11
:10022000191F000F111F000F111FC01BD10BCE0192
:10023000B70115D08B0180E3860F1FDFC801880F3F
:10024000991F880F991F080F191F000F111FCE014A
:10025000801B910B805D11DF8DE00FDF8DCF97FB51
:10026000072E16F4009406D077FD08D00BD007FCBB
:1002700005D03EF4909581959F4F089570956195B6
:100280007F4F0895AA1BBB1B51E107C0AA1FBB1FCC
:10029000A617B70710F0A61BB70B881F991F5A9512
:1002A000A9F780959095BC01CD010895F894FFCFF2
:0602B0006164633A0000E6
:00000001FF
