:1000000009C021C020C071C01EC01DC01CC01BC0C3
:100010001AC019C011241FBECFE9CDBF10E0A0E661
:10002000B0E0ECE6F3E002C005900D92A437B10712
:10003000D9F720E0A4E7B0E001C01D92A937B207CC
:10004000E1F7AFD091C1DCCF1092740080937700BC
:100050001092780081E08093760080917600811183
:10006000FCCF0895009769F020E030E0EFE5F9E07B
:100070003197F1F700C000002F5F3F4F82179307C1
:10008000A9F70895B89AC09A82E083BF86E882BF34
:1000900089B7826089BF7894089510927500D4DF83
:1000A000089510927500D0DF0895CF93DF93EC018F
:1000B000109275008881882329F02196C5DF8991E7
:1000C0008111FCCFDF91CF910895CF93DF93EC01A5
:1000D000109275008881882329F02196B5DF8991D7
:1000E0008111FCCFDF91CF9108951F920F920FB62F
:1000F0000F9211242F938F939F9386E882BF809154
:1001000078008F5F809378008091780080FF2EC008
:1001100080917600882341F180917400811102C0A2
:10012000C09816C080917400893088F4809177005F
:100130002091740090E0215002C0959587952A95F2
:10014000E2F780FF02C0C09A03C0C09801C0C09A05
:10015000809174008A3011F41092760080917400BE
:100160008F5F8093740002C0809175009F918F9182
:100170002F910F900FBE0F901F90189586E886B9AB
:10018000A49A089587B980E28A95F1F7369A349B4C
:10019000FECF349A84B195B1089587DF8DE081DF79
:1001A0000895BB9AEBDF6EDF612C712C0F2EFAE005
:1001B000EF2EF12CF02D0F2EF0E1CF2EF7E2DF2EF7
:1001C000F02D0F2EF4E68F2E912CF02DB09B9FC0BA
:1001D000C70148DFB09905C02AE5621671044CF0EA
:1001E00003C0612C712C05C0C39880E690E0D5DF78
:1001F000EDCF10E0C0E0D0E080EF90E00197F1F7A4
:1002000082E0C0DFC80FD91F1F5F1A30A9F7CE01E7
:10021000B70183D05B016B3D23E072072CF0C398DC
:1002200088E690E0BADF07C0613D734024F4C39ACA
:100230008CE690E0B2DF8FEF681A780A8FE690E0E4
:1002400044DFCE01B60169D0EB01862F805D25DF4A
:10025000CE010024969587950794969587950794E7
:10026000982F802D8C1B9D0B0024969587950794C5
:10027000969587950794982F802D8C0F9D1F880F3A
:10028000991FC80FD91FCC0FDD1FCC0FDD1FCC0F5E
:10029000DD1FCA0DDB1DCE01B4013FD05B0180E341
:1002A000860FFBDEC501880F991F880F991FA80EC6
:1002B000B91EC501880F991F880F991FA80EB91E76
:1002C000AA0CBB1CAA0CBB1CCA19DB09CE01B701C6
:1002D00024D05B0180E3860FE0DEC501880F991F03
:1002E000880F991FA80EB91EAA0CBB1CCE018A1933
:1002F0009B09805DD2DE8DE0D0DE9FEF27E582E0B6
:10030000915020408040E1F700C000005FCF9AE5A7
:10031000691671040CF46DCF67CF97FB072E16F4A6
:10032000009406D077FD08D00BD007FC05D03EF432
:10033000909581959F4F0895709561957F4F089591
:10034000AA1BBB1B51E107C0AA1FBB1FA617B707FB
:1003500010F0A61BB70B881F991F5A95A9F7809517
:0C0360009095BC01CD010895F894FFCFEA
:10036C004F66664D6F7665004F6666004F6E006196
:04037C0064633A007C
:00000001FF
