:1000000009C019C018C017C016C015C014C013C04D
:1000100012C011C011241FBECFE9CDBF10E0A0E671
:10002000B0E0E2E4F1E002C005900D92A036B10725
:10003000D9F720D084C0E4CF20E030E0281739077A
:1000400049F0EFE5F9E03197F1F700C000002F5FCC
:100050003F4FF4CF089586E886B9A49A089587B9EA
:1000600080E28A95F1F7369A349BFECF349A84B1B8
:1000700095B10895BB9AEFDFC0E0D0E08AE0C82ECA
:10008000D12CB09904C0CA35D10564F407C08AE008
:1000900090E0D2DFB09BF7CFC0E0D0E0F12C00E0E1
:1000A00010E002C0C398EDCF80EF90E00197F1F728
:1000B00082E0D5DF080F191FF3949AE0F912F4CF0C
:1000C000C801B60115D06B3D23E0720714F0C39848
:1000D00004C0613D73400CF4C39A21969FE72BE95D
:1000E00082E0915020408040E1F700C00000C9CF7D
:1000F00097FB072E16F4009406D077FD08D00BD09E
:1001000007FC05D03EF4909581959F4F089570951A
:1001100061957F4F0895AA1BBB1B51E107C0AA1F21
:10012000BB1FA617B70710F0A61BB70B881F991F98
:100130005A95A9F780959095BC01CD010895F89442
:02014000FFCFEF
:00000001FF
